{
  "_format": "hh-sol-artifact-1",
  "contractName": "Drive",
  "sourceName": "contracts/drive.sol",
  "abi": [
    {
      "inputs": [
        {
          "internalType": "address",
          "name": "_user",
          "type": "address"
        },
        {
          "internalType": "string",
          "name": "url",
          "type": "string"
        }
      ],
      "name": "add",
      "outputs": [],
      "stateMutability": "nonpayable",
      "type": "function"
    },
    {
      "inputs": [
        {
          "internalType": "address",
          "name": "user",
          "type": "address"
        }
      ],
      "name": "allow",
      "outputs": [],
      "stateMutability": "nonpayable",
      "type": "function"
    },
    {
      "inputs": [
        {
          "internalType": "address",
          "name": "user",
          "type": "address"
        }
      ],
      "name": "disallow",
      "outputs": [],
      "stateMutability": "nonpayable",
      "type": "function"
    },
    {
      "inputs": [
        {
          "internalType": "address",
          "name": "_user",
          "type": "address"
        }
      ],
      "name": "display",
      "outputs": [
        {
          "internalType": "string[]",
          "name": "",
          "type": "string[]"
        }
      ],
      "stateMutability": "view",
      "type": "function"
    },
    {
      "inputs": [],
      "name": "shareAccess",
      "outputs": [
        {
          "components": [
            {
              "internalType": "address",
              "name": "user",
              "type": "address"
            },
            {
              "internalType": "bool",
              "name": "access",
              "type": "bool"
            }
          ],
          "internalType": "struct Drive.Access[]",
          "name": "",
          "type": "tuple[]"
        }
      ],
      "stateMutability": "view",
      "type": "function"
    }
  ],
  "bytecode": "0x608060405234801561001057600080fd5b5061137b806100206000396000f3fe608060405234801561001057600080fd5b50600436106100575760003560e01c806336d6da551461005c578063a9ed9cb814610078578063bc8bef8114610094578063eb39113f146100b2578063ff9913e8146100e2575b600080fd5b61007660048036038101906100719190610bd7565b6100fe565b005b610092600480360381019061008d9190610c37565b61017d565b005b61009c61039f565b6040516100a99190610d6c565b60405180910390f35b6100cc60048036038101906100c79190610c37565b6104a8565b6040516100d99190610ee0565b60405180910390f35b6100fc60048036038101906100f79190610c37565b6106be565b005b6000808473ffffffffffffffffffffffffffffffffffffffff1673ffffffffffffffffffffffffffffffffffffffff168152602001908152602001600020828290918060018154018082558091505060019003906000526020600020016000909192909192909192909192509182610177929190611152565b50505050565b6000600160003373ffffffffffffffffffffffffffffffffffffffff1673ffffffffffffffffffffffffffffffffffffffff16815260200190815260200160002060008373ffffffffffffffffffffffffffffffffffffffff1673ffffffffffffffffffffffffffffffffffffffff16815260200190815260200160002060006101000a81548160ff02191690831515021790555060005b600260003373ffffffffffffffffffffffffffffffffffffffff1673ffffffffffffffffffffffffffffffffffffffff1681526020019081526020016000208054905081101561039b578173ffffffffffffffffffffffffffffffffffffffff16600260003373ffffffffffffffffffffffffffffffffffffffff1673ffffffffffffffffffffffffffffffffffffffff16815260200190815260200160002082815481106102c7576102c6611222565b5b9060005260206000200160000160009054906101000a900473ffffffffffffffffffffffffffffffffffffffff1673ffffffffffffffffffffffffffffffffffffffff1603610388576000600260003373ffffffffffffffffffffffffffffffffffffffff1673ffffffffffffffffffffffffffffffffffffffff168152602001908152602001600020828154811061036357610362611222565b5b9060005260206000200160000160146101000a81548160ff0219169083151502179055505b808061039390611280565b915050610215565b5050565b6060600260003373ffffffffffffffffffffffffffffffffffffffff1673ffffffffffffffffffffffffffffffffffffffff168152602001908152602001600020805480602002602001604051908101604052809291908181526020016000905b8282101561049f578382906000526020600020016040518060400160405290816000820160009054906101000a900473ffffffffffffffffffffffffffffffffffffffff1673ffffffffffffffffffffffffffffffffffffffff1673ffffffffffffffffffffffffffffffffffffffff1681526020016000820160149054906101000a900460ff16151515158152505081526020019060010190610400565b50505050905090565b60603373ffffffffffffffffffffffffffffffffffffffff168273ffffffffffffffffffffffffffffffffffffffff16148061056a5750600160008373ffffffffffffffffffffffffffffffffffffffff1673ffffffffffffffffffffffffffffffffffffffff16815260200190815260200160002060003373ffffffffffffffffffffffffffffffffffffffff1673ffffffffffffffffffffffffffffffffffffffff16815260200190815260200160002060009054906101000a900460ff165b6105a9576040517f08c379a00000000000000000000000000000000000000000000000000000000081526004016105a090611325565b60405180910390fd5b6000808373ffffffffffffffffffffffffffffffffffffffff1673ffffffffffffffffffffffffffffffffffffffff168152602001908152602001600020805480602002602001604051908101604052809291908181526020016000905b828210156106b357838290600052602060002001805461062690610f6b565b80601f016020809104026020016040519081016040528092919081815260200182805461065290610f6b565b801561069f5780601f106106745761010080835404028352916020019161069f565b820191906000526020600020905b81548152906001019060200180831161068257829003601f168201915b505050505081526020019060010190610607565b505050509050919050565b60018060003373ffffffffffffffffffffffffffffffffffffffff1673ffffffffffffffffffffffffffffffffffffffff16815260200190815260200160002060008373ffffffffffffffffffffffffffffffffffffffff1673ffffffffffffffffffffffffffffffffffffffff16815260200190815260200160002060006101000a81548160ff02191690831515021790555060011515600360003373ffffffffffffffffffffffffffffffffffffffff1673ffffffffffffffffffffffffffffffffffffffff16815260200190815260200160002060008373ffffffffffffffffffffffffffffffffffffffff1673ffffffffffffffffffffffffffffffffffffffff16815260200190815260200160002060009054906101000a900460ff161515036109765760005b600260003373ffffffffffffffffffffffffffffffffffffffff1673ffffffffffffffffffffffffffffffffffffffff16815260200190815260200160002080549050811015610970578173ffffffffffffffffffffffffffffffffffffffff16600260003373ffffffffffffffffffffffffffffffffffffffff1673ffffffffffffffffffffffffffffffffffffffff168152602001908152602001600020828154811061089c5761089b611222565b5b9060005260206000200160000160009054906101000a900473ffffffffffffffffffffffffffffffffffffffff1673ffffffffffffffffffffffffffffffffffffffff160361095d576001600260003373ffffffffffffffffffffffffffffffffffffffff1673ffffffffffffffffffffffffffffffffffffffff168152602001908152602001600020828154811061093857610937611222565b5b9060005260206000200160000160146101000a81548160ff0219169083151502179055505b808061096890611280565b9150506107ea565b50610b07565b600260003373ffffffffffffffffffffffffffffffffffffffff1673ffffffffffffffffffffffffffffffffffffffff16815260200190815260200160002060405180604001604052808373ffffffffffffffffffffffffffffffffffffffff168152602001600115158152509080600181540180825580915050600190039060005260206000200160009091909190915060008201518160000160006101000a81548173ffffffffffffffffffffffffffffffffffffffff021916908373ffffffffffffffffffffffffffffffffffffffff16021790555060208201518160000160146101000a81548160ff02191690831515021790555050506001600360003373ffffffffffffffffffffffffffffffffffffffff1673ffffffffffffffffffffffffffffffffffffffff16815260200190815260200160002060008373ffffffffffffffffffffffffffffffffffffffff1673ffffffffffffffffffffffffffffffffffffffff16815260200190815260200160002060006101000a81548160ff0219169083151502179055505b50565b600080fd5b600080fd5b600073ffffffffffffffffffffffffffffffffffffffff82169050919050565b6000610b3f82610b14565b9050919050565b610b4f81610b34565b8114610b5a57600080fd5b50565b600081359050610b6c81610b46565b92915050565b600080fd5b600080fd5b600080fd5b60008083601f840112610b9757610b96610b72565b5b8235905067ffffffffffffffff811115610bb457610bb3610b77565b5b602083019150836001820283011115610bd057610bcf610b7c565b5b9250929050565b600080600060408486031215610bf057610bef610b0a565b5b6000610bfe86828701610b5d565b935050602084013567ffffffffffffffff811115610c1f57610c1e610b0f565b5b610c2b86828701610b81565b92509250509250925092565b600060208284031215610c4d57610c4c610b0a565b5b6000610c5b84828501610b5d565b91505092915050565b600081519050919050565b600082825260208201905092915050565b6000819050602082019050919050565b610c9981610b34565b82525050565b60008115159050919050565b610cb481610c9f565b82525050565b604082016000820151610cd06000850182610c90565b506020820151610ce36020850182610cab565b50505050565b6000610cf58383610cba565b60408301905092915050565b6000602082019050919050565b6000610d1982610c64565b610d238185610c6f565b9350610d2e83610c80565b8060005b83811015610d5f578151610d468882610ce9565b9750610d5183610d01565b925050600181019050610d32565b5085935050505092915050565b60006020820190508181036000830152610d868184610d0e565b905092915050565b600081519050919050565b600082825260208201905092915050565b6000819050602082019050919050565b600081519050919050565b600082825260208201905092915050565b60005b83811015610df4578082015181840152602081019050610dd9565b60008484015250505050565b6000601f19601f8301169050919050565b6000610e1c82610dba565b610e268185610dc5565b9350610e36818560208601610dd6565b610e3f81610e00565b840191505092915050565b6000610e568383610e11565b905092915050565b6000602082019050919050565b6000610e7682610d8e565b610e808185610d99565b935083602082028501610e9285610daa565b8060005b85811015610ece5784840389528151610eaf8582610e4a565b9450610eba83610e5e565b925060208a01995050600181019050610e96565b50829750879550505050505092915050565b60006020820190508181036000830152610efa8184610e6b565b905092915050565b600082905092915050565b7f4e487b7100000000000000000000000000000000000000000000000000000000600052604160045260246000fd5b7f4e487b7100000000000000000000000000000000000000000000000000000000600052602260045260246000fd5b60006002820490506001821680610f8357607f821691505b602082108103610f9657610f95610f3c565b5b50919050565b60008190508160005260206000209050919050565b60006020601f8301049050919050565b600082821b905092915050565b600060088302610ffe7fffffffffffffffffffffffffffffffffffffffffffffffffffffffffffffffff82610fc1565b6110088683610fc1565b95508019841693508086168417925050509392505050565b6000819050919050565b6000819050919050565b600061104f61104a61104584611020565b61102a565b611020565b9050919050565b6000819050919050565b61106983611034565b61107d61107582611056565b848454610fce565b825550505050565b600090565b611092611085565b61109d818484611060565b505050565b5b818110156110c1576110b660008261108a565b6001810190506110a3565b5050565b601f821115611106576110d781610f9c565b6110e084610fb1565b810160208510156110ef578190505b6111036110fb85610fb1565b8301826110a2565b50505b505050565b600082821c905092915050565b60006111296000198460080261110b565b1980831691505092915050565b60006111428383611118565b9150826002028217905092915050565b61115c8383610f02565b67ffffffffffffffff81111561117557611174610f0d565b5b61117f8254610f6b565b61118a8282856110c5565b6000601f8311600181146111b957600084156111a7578287013590505b6111b18582611136565b865550611219565b601f1984166111c786610f9c565b60005b828110156111ef578489013582556001820191506020850194506020810190506111ca565b8683101561120c5784890135611208601f891682611118565b8355505b6001600288020188555050505b50505050505050565b7f4e487b7100000000000000000000000000000000000000000000000000000000600052603260045260246000fd5b7f4e487b7100000000000000000000000000000000000000000000000000000000600052601160045260246000fd5b600061128b82611020565b91507fffffffffffffffffffffffffffffffffffffffffffffffffffffffffffffffff82036112bd576112bc611251565b5b600182019050919050565b600082825260208201905092915050565b7f4163636573732044656e69656400000000000000000000000000000000000000600082015250565b600061130f600d836112c8565b915061131a826112d9565b602082019050919050565b6000602082019050818103600083015261133e81611302565b905091905056fea2646970667358221220fa564ae7a10b45d7921ba74d0db858204b03957510b9ff0f6c0a11fbf5c1f72364736f6c63430008130033",
  "linkReferences": {},
  "deployedLinkReferences": {}
}